{
  "_format": "hh-sol-artifact-1",
  "contractName": "LiquidityPool",
  "sourceName": "contracts/LiquidityPool.sol",
  "abi": [
    {
      "inputs": [
        {
          "internalType": "address",
          "name": "_tokenA",
          "type": "address"
        },
        {
          "internalType": "address",
          "name": "_tokenB",
          "type": "address"
        }
      ],
      "stateMutability": "nonpayable",
      "type": "constructor"
    },
    {
      "anonymous": false,
      "inputs": [
        {
          "indexed": true,
          "internalType": "address",
          "name": "provider",
          "type": "address"
        },
        {
          "indexed": false,
          "internalType": "uint256",
          "name": "amountA",
          "type": "uint256"
        },
        {
          "indexed": false,
          "internalType": "uint256",
          "name": "amountB",
          "type": "uint256"
        }
      ],
      "name": "LiquidityAdded",
      "type": "event"
    },
    {
      "anonymous": false,
      "inputs": [
        {
          "indexed": true,
          "internalType": "address",
          "name": "provider",
          "type": "address"
        },
        {
          "indexed": false,
          "internalType": "uint256",
          "name": "amountA",
          "type": "uint256"
        },
        {
          "indexed": false,
          "internalType": "uint256",
          "name": "amountB",
          "type": "uint256"
        }
      ],
      "name": "LiquidityRemoved",
      "type": "event"
    },
    {
      "anonymous": false,
      "inputs": [
        {
          "indexed": true,
          "internalType": "address",
          "name": "trader",
          "type": "address"
        },
        {
          "indexed": false,
          "internalType": "address",
          "name": "inputToken",
          "type": "address"
        },
        {
          "indexed": false,
          "internalType": "address",
          "name": "outputToken",
          "type": "address"
        },
        {
          "indexed": false,
          "internalType": "uint256",
          "name": "inputAmount",
          "type": "uint256"
        },
        {
          "indexed": false,
          "internalType": "uint256",
          "name": "outputAmount",
          "type": "uint256"
        }
      ],
      "name": "Swap",
      "type": "event"
    },
    {
      "inputs": [
        {
          "internalType": "uint256",
          "name": "amountA",
          "type": "uint256"
        },
        {
          "internalType": "uint256",
          "name": "amountB",
          "type": "uint256"
        }
      ],
      "name": "addLiquidity",
      "outputs": [],
      "stateMutability": "nonpayable",
      "type": "function"
    },
    {
      "inputs": [],
      "name": "getReserves",
      "outputs": [
        {
          "internalType": "uint256",
          "name": "",
          "type": "uint256"
        },
        {
          "internalType": "uint256",
          "name": "",
          "type": "uint256"
        }
      ],
      "stateMutability": "view",
      "type": "function"
    },
    {
      "inputs": [
        {
          "internalType": "address",
          "name": "",
          "type": "address"
        }
      ],
      "name": "liquidity",
      "outputs": [
        {
          "internalType": "uint256",
          "name": "",
          "type": "uint256"
        }
      ],
      "stateMutability": "view",
      "type": "function"
    },
    {
      "inputs": [
        {
          "internalType": "uint256",
          "name": "amountA",
          "type": "uint256"
        },
        {
          "internalType": "uint256",
          "name": "amountB",
          "type": "uint256"
        }
      ],
      "name": "removeLiquidity",
      "outputs": [],
      "stateMutability": "nonpayable",
      "type": "function"
    },
    {
      "inputs": [],
      "name": "reserveA",
      "outputs": [
        {
          "internalType": "uint256",
          "name": "",
          "type": "uint256"
        }
      ],
      "stateMutability": "view",
      "type": "function"
    },
    {
      "inputs": [],
      "name": "reserveB",
      "outputs": [
        {
          "internalType": "uint256",
          "name": "",
          "type": "uint256"
        }
      ],
      "stateMutability": "view",
      "type": "function"
    },
    {
      "inputs": [
        {
          "internalType": "address",
          "name": "inputToken",
          "type": "address"
        },
        {
          "internalType": "uint256",
          "name": "inputAmount",
          "type": "uint256"
        }
      ],
      "name": "swap",
      "outputs": [
        {
          "internalType": "uint256",
          "name": "outputAmount",
          "type": "uint256"
        }
      ],
      "stateMutability": "nonpayable",
      "type": "function"
    },
    {
      "inputs": [],
      "name": "tokenA",
      "outputs": [
        {
          "internalType": "address",
          "name": "",
          "type": "address"
        }
      ],
      "stateMutability": "view",
      "type": "function"
    },
    {
      "inputs": [],
      "name": "tokenB",
      "outputs": [
        {
          "internalType": "address",
          "name": "",
          "type": "address"
        }
      ],
      "stateMutability": "view",
      "type": "function"
    }
  ],
  "bytecode": "0x608060405234801561001057600080fd5b506040516114f83803806114f88339818101604052810190610032919061011d565b816000806101000a81548173ffffffffffffffffffffffffffffffffffffffff021916908373ffffffffffffffffffffffffffffffffffffffff16021790555080600160006101000a81548173ffffffffffffffffffffffffffffffffffffffff021916908373ffffffffffffffffffffffffffffffffffffffff160217905550505061015d565b600080fd5b600073ffffffffffffffffffffffffffffffffffffffff82169050919050565b60006100ea826100bf565b9050919050565b6100fa816100df565b811461010557600080fd5b50565b600081519050610117816100f1565b92915050565b60008060408385031215610134576101336100ba565b5b600061014285828601610108565b925050602061015385828601610108565b9150509250929050565b61138c8061016c6000396000f3fe608060405234801561001057600080fd5b50600436106100935760003560e01c80639cd441da116100665780639cd441da146101115780639d7de6b31461012d578063b8c876b114610149578063d004f0f714610179578063dc5fa6c5146101a957610093565b80630902f1ac146100985780630fc63d10146100b757806319e36f3b146100d55780635f64b55b146100f3575b600080fd5b6100a06101c7565b6040516100ae929190610cd0565b60405180910390f35b6100bf6101d8565b6040516100cc9190610d3a565b60405180910390f35b6100dd6101fc565b6040516100ea9190610d55565b60405180910390f35b6100fb610202565b6040516101089190610d3a565b60405180910390f35b61012b60048036038101906101269190610da1565b610228565b005b61014760048036038101906101429190610da1565b6104a2565b005b610163600480360381019061015e9190610e0d565b6107f8565b6040516101709190610d55565b60405180910390f35b610193600480360381019061018e9190610e3a565b610810565b6040516101a09190610d55565b60405180910390f35b6101b1610cb1565b6040516101be9190610d55565b60405180910390f35b600080600254600354915091509091565b60008054906101000a900473ffffffffffffffffffffffffffffffffffffffff1681565b60035481565b600160009054906101000a900473ffffffffffffffffffffffffffffffffffffffff1681565b6000821180156102385750600081115b610277576040517f08c379a000000000000000000000000000000000000000000000000000000000815260040161026e90610ed7565b60405180910390fd5b60008054906101000a900473ffffffffffffffffffffffffffffffffffffffff1673ffffffffffffffffffffffffffffffffffffffff166323b872dd3330856040518463ffffffff1660e01b81526004016102d493929190610ef7565b6020604051808303816000875af11580156102f3573d6000803e3d6000fd5b505050506040513d601f19601f820116820180604052508101906103179190610f66565b50600160009054906101000a900473ffffffffffffffffffffffffffffffffffffffff1673ffffffffffffffffffffffffffffffffffffffff166323b872dd3330846040518463ffffffff1660e01b815260040161037793929190610ef7565b6020604051808303816000875af1158015610396573d6000803e3d6000fd5b505050506040513d601f19601f820116820180604052508101906103ba9190610f66565b5081600260008282546103cd9190610fc2565b9250508190555080600360008282546103e69190610fc2565b9250508190555080826103f99190610fc2565b600460003373ffffffffffffffffffffffffffffffffffffffff1673ffffffffffffffffffffffffffffffffffffffff16815260200190815260200160002060008282546104479190610fc2565b925050819055503373ffffffffffffffffffffffffffffffffffffffff167fac1d76749e5447b7b16f5ab61447e1bd502f3bb4807af3b28e620d1700a6ee458383604051610496929190610cd0565b60405180910390a25050565b6000821180156104b25750600081115b6104f1576040517f08c379a00000000000000000000000000000000000000000000000000000000081526004016104e890610ed7565b60405180910390fd5b816002541015801561050557508060035410155b610544576040517f08c379a000000000000000000000000000000000000000000000000000000000815260040161053b90611042565b60405180910390fd5b80826105509190610fc2565b600460003373ffffffffffffffffffffffffffffffffffffffff1673ffffffffffffffffffffffffffffffffffffffff1681526020019081526020016000205410156105d1576040517f08c379a00000000000000000000000000000000000000000000000000000000081526004016105c8906110ae565b60405180910390fd5b81600260008282546105e391906110ce565b9250508190555080600360008282546105fc91906110ce565b92505081905550808261060f9190610fc2565b600460003373ffffffffffffffffffffffffffffffffffffffff1673ffffffffffffffffffffffffffffffffffffffff168152602001908152602001600020600082825461065d91906110ce565b9250508190555060008054906101000a900473ffffffffffffffffffffffffffffffffffffffff1673ffffffffffffffffffffffffffffffffffffffff1663a9059cbb33846040518363ffffffff1660e01b81526004016106bf929190611102565b6020604051808303816000875af11580156106de573d6000803e3d6000fd5b505050506040513d601f19601f820116820180604052508101906107029190610f66565b50600160009054906101000a900473ffffffffffffffffffffffffffffffffffffffff1673ffffffffffffffffffffffffffffffffffffffff1663a9059cbb33836040518363ffffffff1660e01b8152600401610760929190611102565b6020604051808303816000875af115801561077f573d6000803e3d6000fd5b505050506040513d601f19601f820116820180604052508101906107a39190610f66565b503373ffffffffffffffffffffffffffffffffffffffff167f96cd817c6329656790ef8fba7675405193677d39619571282f5e21f3a98cd05983836040516107ec929190610cd0565b60405180910390a25050565b60046020528060005260406000206000915090505481565b60008060009054906101000a900473ffffffffffffffffffffffffffffffffffffffff1673ffffffffffffffffffffffffffffffffffffffff168373ffffffffffffffffffffffffffffffffffffffff1614806108ba5750600160009054906101000a900473ffffffffffffffffffffffffffffffffffffffff1673ffffffffffffffffffffffffffffffffffffffff168373ffffffffffffffffffffffffffffffffffffffff16145b6108f9576040517f08c379a00000000000000000000000000000000000000000000000000000000081526004016108f090611177565b60405180910390fd5b6000821161093c576040517f08c379a0000000000000000000000000000000000000000000000000000000008152600401610933906111e3565b60405180910390fd5b60008060009054906101000a900473ffffffffffffffffffffffffffffffffffffffff1673ffffffffffffffffffffffffffffffffffffffff168473ffffffffffffffffffffffffffffffffffffffff161490506000816109bd5760008054906101000a900473ffffffffffffffffffffffffffffffffffffffff166109e1565b600160009054906101000a900473ffffffffffffffffffffffffffffffffffffffff165b90506000826109f2576003546109f6565b6002545b9050600083610a0757600254610a0b565b6003545b9050600082118015610a1d5750600081115b610a5c576040517f08c379a0000000000000000000000000000000000000000000000000000000008152600401610a53906110ae565b60405180910390fd5b8673ffffffffffffffffffffffffffffffffffffffff166323b872dd3330896040518463ffffffff1660e01b8152600401610a9993929190610ef7565b6020604051808303816000875af1158015610ab8573d6000803e3d6000fd5b505050506040513d601f19601f82011682018060405250810190610adc9190610f66565b5060006103e86103e588610af09190611203565b610afa9190611274565b90508083610b089190610fc2565b8282610b149190611203565b610b1e9190611274565b955060008611610b63576040517f08c379a0000000000000000000000000000000000000000000000000000000008152600401610b5a906112f1565b60405180910390fd5b8373ffffffffffffffffffffffffffffffffffffffff1663a9059cbb33886040518363ffffffff1660e01b8152600401610b9e929190611102565b6020604051808303816000875af1158015610bbd573d6000803e3d6000fd5b505050506040513d601f19601f82011682018060405250810190610be19190610f66565b508415610c1f578660026000828254610bfa9190610fc2565b925050819055508560036000828254610c1391906110ce565b92505081905550610c52565b8660036000828254610c319190610fc2565b925050819055508560026000828254610c4a91906110ce565b925050819055505b3373ffffffffffffffffffffffffffffffffffffffff167fcd3829a3813dc3cdd188fd3d01dcf3268c16be2fdd2dd21d0665418816e4606289868a8a604051610c9e9493929190611311565b60405180910390a2505050505092915050565b60025481565b6000819050919050565b610cca81610cb7565b82525050565b6000604082019050610ce56000830185610cc1565b610cf26020830184610cc1565b9392505050565b600073ffffffffffffffffffffffffffffffffffffffff82169050919050565b6000610d2482610cf9565b9050919050565b610d3481610d19565b82525050565b6000602082019050610d4f6000830184610d2b565b92915050565b6000602082019050610d6a6000830184610cc1565b92915050565b600080fd5b610d7e81610cb7565b8114610d8957600080fd5b50565b600081359050610d9b81610d75565b92915050565b60008060408385031215610db857610db7610d70565b5b6000610dc685828601610d8c565b9250506020610dd785828601610d8c565b9150509250929050565b610dea81610d19565b8114610df557600080fd5b50565b600081359050610e0781610de1565b92915050565b600060208284031215610e2357610e22610d70565b5b6000610e3184828501610df8565b91505092915050565b60008060408385031215610e5157610e50610d70565b5b6000610e5f85828601610df8565b9250506020610e7085828601610d8c565b9150509250929050565b600082825260208201905092915050565b7f496e76616c696420616d6f756e74730000000000000000000000000000000000600082015250565b6000610ec1600f83610e7a565b9150610ecc82610e8b565b602082019050919050565b60006020820190508181036000830152610ef081610eb4565b9050919050565b6000606082019050610f0c6000830186610d2b565b610f196020830185610d2b565b610f266040830184610cc1565b949350505050565b60008115159050919050565b610f4381610f2e565b8114610f4e57600080fd5b50565b600081519050610f6081610f3a565b92915050565b600060208284031215610f7c57610f7b610d70565b5b6000610f8a84828501610f51565b91505092915050565b7f4e487b7100000000000000000000000000000000000000000000000000000000600052601160045260246000fd5b6000610fcd82610cb7565b9150610fd883610cb7565b9250828201905080821115610ff057610fef610f93565b5b92915050565b7f496e73756666696369656e742072657365727665730000000000000000000000600082015250565b600061102c601583610e7a565b915061103782610ff6565b602082019050919050565b6000602082019050818103600083015261105b8161101f565b9050919050565b7f496e73756666696369656e74206c697175696469747900000000000000000000600082015250565b6000611098601683610e7a565b91506110a382611062565b602082019050919050565b600060208201905081810360008301526110c78161108b565b9050919050565b60006110d982610cb7565b91506110e483610cb7565b92508282039050818111156110fc576110fb610f93565b5b92915050565b60006040820190506111176000830185610d2b565b6111246020830184610cc1565b9392505050565b7f496e76616c696420746f6b656e00000000000000000000000000000000000000600082015250565b6000611161600d83610e7a565b915061116c8261112b565b602082019050919050565b6000602082019050818103600083015261119081611154565b9050919050565b7f496e76616c696420696e70757420616d6f756e74000000000000000000000000600082015250565b60006111cd601483610e7a565b91506111d882611197565b602082019050919050565b600060208201905081810360008301526111fc816111c0565b9050919050565b600061120e82610cb7565b915061121983610cb7565b925082820261122781610cb7565b9150828204841483151761123e5761123d610f93565b5b5092915050565b7f4e487b7100000000000000000000000000000000000000000000000000000000600052601260045260246000fd5b600061127f82610cb7565b915061128a83610cb7565b92508261129a57611299611245565b5b828204905092915050565b7f496e73756666696369656e74206f757470757420616d6f756e74000000000000600082015250565b60006112db601a83610e7a565b91506112e6826112a5565b602082019050919050565b6000602082019050818103600083015261130a816112ce565b9050919050565b60006080820190506113266000830187610d2b565b6113336020830186610d2b565b6113406040830185610cc1565b61134d6060830184610cc1565b9594505050505056fea26469706673582212200bb4693eab0ab3d2ac330df580808c7ab0775cf537cfb99dcdb2ffd9915339b764736f6c634300081c0033",
  "linkReferences": {},
  "deployedLinkReferences": {}
}